:020000040800F2
:100000000028002051130008E1120008E712000840
:10001000ED120008F3120008F912000800000000B9
:10002000000000000000000000000000FF120008B7
:100030000B1300080000000017130008231300082A
:1000400099130008991300089913000899130008E0
:1000500099130008991300089913000899130008D0
:1000600099130008991300089913000899130008C0
:1000700099130008991300089913000899130008B0
:1000800099130008991300089913000899130008A0
:100090009913000899130008991300089913000890
:1000A0009913000899130008991300089913000880
:1000B000311300089913000800000000991300088C
:1000C00099130008000000000000000099130008C8
:1000D00000000000991300089913000800000000B8
:1000E00099130008991300089913000800000000F4
:1000F0000000000000000000000000000000000000
:0C01000000000000000000005FF808F1A3
:10010C0010B5054C237833B9044B13B10448AFF345
:10011C0000800123237010BD50000020000000005F
:10012C00F429000808B5034B1BB103490348AFF38E
:10013C00008008BD0000000054000020F4290008D5
:10014C0080B584B000AFF860B9607A607B68002B32
:10015C0043D1FB681868BB681B880022194601F064
:10016C001AFCFB6804331868BB6802331B88002236
:10017C00194601F010FCFB6808331868BB6804339F
:10018C001B880022194601F006FCFB680C3318682A
:10019C00BB6806331B880022194601F0FCFBFB6888
:1001AC0010331868BB6808331B880022194601F00D
:1001BC00F2FBFB6814331868BB680A331B880022F7
:1001CC00194601F0E8FBFB6818331868BB680C3360
:1001DC001B880122194601F0DEFB7B68012B43D101
:1001EC00FB681868BB681B880122194601F0D3FB19
:1001FC00FB6804331868BB6802331B88002219465D
:10020C0001F0C9FBFB6808331868BB6804331B8812
:10021C000022194601F0BFFBFB680C331868BB6861
:10022C0006331B880122194601F0B5FBFB6810331D
:10023C001868BB6808331B880122194601F0ABFB18
:10024C00FB6814331868BB680A331B8801221946F3
:10025C0001F0A1FBFB6818331868BB680C331B88D2
:10026C000122194601F097FB7B68022B43D1FB68F6
:10027C001868BB681B880022194601F08CFBFB68D0
:10028C0004331868BB6802331B880022194601F03E
:10029C0082FBFB6808331868BB6804331B88012297
:1002AC00194601F078FBFB680C331868BB68063301
:1002BC001B880022194601F06EFBFB68103318688E
:1002CC00BB6808331B880022194601F064FBFB68ED
:1002DC0014331868BB680A331B880122194601F0D5
:1002EC005AFBFB6818331868BB680C331B88002258
:1002FC00194601F050FB7B68032B43D1FB6818684F
:10030C00BB681B880022194601F045FBFB680433CF
:10031C001868BB6802331B880022194601F03BFBAE
:10032C00FB6808331868BB6804331B880022194625
:10033C0001F031FBFB680C331868BB6806331B8873
:10034C000022194601F027FBFB6810331868BB68C4
:10035C0008331B880122194601F01DFBFB6814337E
:10036C001868BB680A331B880122194601F013FB7D
:10037C00FB6818331868BB680C331B8800221946BD
:10038C0001F009FB7B68042B43D1FB681868BB6840
:10039C001B880122194601F0FEFAFB680433186829
:1003AC00BB6802331B880022194601F0F4FAFB6883
:1003BC0008331868BB6804331B880022194601F007
:1003CC00EAFAFB680C331868BB6806331B880122F9
:1003DC00194601F0E0FAFB6810331868BB68083363
:1003EC001B880122194601F0D6FAFB6814331868F1
:1003FC00BB680A331B880022194601F0CCFAFB6853
:10040C0018331868BB680C331B880022194601F09E
:10041C00C2FA7B68052B43D1FB681868BB681B8844
:10042C000022194601F0B7FAFB6804331868BB6860
:10043C0002331B880122194601F0ADFAFB68083320
:10044C001868BB6804331B880022194601F0A3FA14
:10045C00FB680C331868BB6806331B8800221946EE
:10046C0001F099FAFB6810331868BB6808331B88D5
:10047C000122194601F08FFAFB6814331868BB6827
:10048C000A331B880022194601F085FAFB681833E1
:10049C001868BB680C331B880022194601F07BFAE4
:1004AC007B68062B43D1FB681868BB681B8800224D
:1004BC00194601F070FAFB6804331868BB68023304
:1004CC001B880122194601F066FAFB68083318688C
:1004DC00BB6804331B880022194601F05CFAFB68E8
:1004EC000C331868BB6806331B880022194601F0D0
:1004FC0052FAFB6810331868BB6808331B8800225B
:10050C00194601F048FAFB6814331868BB680A33C3
:10051C001B880022194601F03EFAFB681833186854
:10052C00BB680C331B880022194601F034FA7B6837
:10053C00072B43D1FB681868BB681B88002219463F
:10054C0001F029FAFB6804331868BB6802331B8876
:10055C000022194601F01FFAFB6808331868BB68C3
:10056C0004331B880022194601F015FAFB680C3382
:10057C001868BB6806331B880122194601F00BFA78
:10058C00FB6810331868BB6808331B8801221946B6
:10059C0001F001FAFB6814331868BB680A331B8836
:1005AC000122194601F0F7F9FB6818331868BB688B
:1005BC000C331B880122194601F0EDF97B68082BDE
:1005CC0043D1FB681868BB681B880022194601F0F0
:1005DC00E2F9FB6804331868BB6802331B880022FD
:1005EC00194601F0D8F9FB6808331868BB68043366
:1005FC001B880022194601F0CEF9FB680C331868F1
:10060C00BB6806331B880022194601F0C4F9FB684D
:10061C0010331868BB6808331B880022194601F098
:10062C00BAF9FB6814331868BB680A331B880022BC
:10063C00194601F0B0F9FB6818331868BB680C3325
:10064C001B880022194601F0A6F97B68092B43D1BF
:10065C00FB681868BB681B880022194601F09BF9DF
:10066C00FB6804331868BB6802331B8800221946E8
:10067C0001F091F9FB6808331868BB6804331B88D8
:10068C000022194601F087F9FB680C331868BB6827
:10069C0006331B880022194601F07DF9FB681033E4
:1006AC001868BB6808331B880122194601F073F9DE
:1006BC00FB6814331868BB680A331B880022194680
:1006CC0001F069F9FB6818331868BB680C331B8898
:1006DC000022194601F05FF900BF1037BD4680BDFE
:1006EC0080B483B000AF7860074B1B687A6892FBCC
:1006FC00F3F3064A1360064B00221A6000BF0C3756
:10070C00BD4680BC704700BF000000206C0000207C
:10071C007000002080B483B000AF7860074B1B687A
:10072C007A6892FBF3F3064A1360064B00221A60B8
:10073C0000BF0C37BD4680BC704700BF00000020D6
:10074C00740000207800002080B483B000AF786083
:10075C00074B1B687A6892FBF3F3064A1360064B4F
:10076C0000221A6000BF0C37BD4680BC704700BF2A
:10077C00000000207C0000208000002080B483B0AA
:10078C0000AF7860074B1B687A6892FBF3F3064A5C
:10079C001360064B00221A6000BF0C37BD4680BCAC
:1007AC00704700BF0000002084000020880000205B
:1007BC0080B400AF214B1B68002B0BDD1F4B1B685B
:1007CC00013B1E4A13601D4B1B68002B02DC1C4BAB
:1007DC0001221A601B4B1B68002B0BDD194B1B688D
:1007EC00013B184A1360174B1B68002B02DC164B9D
:1007FC0001221A60154B1B68002B0BDD134B1B6879
:10080C00013B124A1360114B1B68002B02DC104B8E
:10081C0001221A600F4B1B68002B0BDD0D4B1B6864
:10082C00013B0C4A13600B4B1B68002B02DC0A4B80
:10083C0001221A6000BFBD4680BC70476C000020CE
:10084C007000002074000020780000207C00002044
:10085C0080000020840000208800002080B485B037
:10086C0000AFF8600B467A607B8114497B68FA68AC
:10087C0041F8232012497B687A8921F81320114A08
:10088C007B68012142F823100F4A7B68012142F852
:10089C0023100E4A7B68012142F823100C4A7B6816
:1008AC00002142F823100B4A7B684FF47A7142F80E
:1008BC00231000BF1437BD4680BC7047C800002011
:1008CC00D4000020980000208C000020A400002000
:1008DC00B0000020BC00002080B582B000AF786072
:1008EC002E4A7B6852F823202D497B6841F823203F
:1008FC002C4A7B6852F823202B497B6831F8133043
:10090C001946104601F030F803461946234A7B6815
:10091C0042F82310214A7B6852F8232020497B6837
:10092C0051F823309A4207D11C4A7B6852F8232095
:10093C001E497B6841F823201C4A7B6852F82330FF
:10094C00002B16D11A4A7B6852F82330002B0ADD93
:10095C00174A7B6852F82330A3F10A0214497B68CA
:10096C0041F8232016E0134A7B68012142F823103A
:10097C0010E00E4A7B6852F82330012B0AD10C4A46
:10098C007B684FF47A7142F823100A4A7B68002185
:10099C0042F8231000BF0837BD4680BD98000020E8
:1009AC008C000020C8000020D4000020A4000020EF
:1009BC00BC000020B000002080B483B000AF786091
:1009CC00064A7B6852F82330002B0CBF012300230E
:1009DC00DBB218460C37BD4680BC7047A400002023
:1009EC0080B500AFAD4B1B78072B00F2438201A200
:1009FC0052F823F0210A0008650A00081F0B0008B2
:100A0C00BB0B0008570C0008D90C0008510D00084E
:100A1C00C70D000800224FF40061A148FFF71EFF2C
:100A2C0001224FF480519E48FFF718FF02224FF429
:100A3C0000519B48FFF712FF9A4B05221A604FF4A6
:100A4C007A70FFF781FE984B1B681846FFF796FEED
:100A5C00924B01221A700DE200F08CFA914B1B683C
:100A6C001A4692499248FFF76BFB924B1B68012B7D
:100A7C0008D18D4B1B681846FFF780FE2021884853
:100A8C0000F0A1FF8C4B1B68012B05D14FF47A7041
:100A9C00FFF75AFE00F088FA00F0B0FA0346002B7C
:100AAC0009D07E4B07221A70834B01221A607D4BB2
:100ABC001B68824A13600120FFF77EFF0346002B60
:100ACC000BD0764B02221A704FF47A70FFF722FE8D
:100ADC004FF47A70FFF704FE10E00220FFF76CFF72
:100AEC000346002B0AD06D4B03221A704FF47A7018
:100AFC00FFF710FE4FF47A70FFF7F2FD0020FFF7BE
:100B0C005BFF0346002B00F0A881644B04221A7093
:100B1C00A3E16B4B1B68002B15D1624B1B68013397
:100B2C00604A13605F4B1B680A2B02D15D4B00229D
:100B3C001A605C4B1B681A465C495D48FFF700FB6A
:100B4C005F4B01221A605B4B1B68012B08D1564B83
:100B5C001B681846FFF712FE2021514800F033FFA6
:100B6C00584B1B68012B06D14FF47A70FFF7D2FD5E
:100B7C00012000F09BF900F0DDF90346002B02D0B8
:100B8C00464B05221A700120FFF716FF0346002B77
:100B9C0040F06581414B01221A70494B00221A60CA
:100BAC0000F01CFA4FF47A70FFF7CEFD57E1464B7C
:100BBC001B68002B15D13B4B1B68013B394A13605A
:100BCC00384B1B68002B02DA364B09221A60354B66
:100BDC001B681A4635493648FFF7B2FA3A4B0122E0
:100BEC001A60344B1B68012B08D12F4B1B6818461D
:100BFC00FFF7C4FD20212A4800F0E5FE314B1B68AD
:100C0C00012B06D14FF47A70FFF784FD022000F01F
:100C1C004DF900F09FF90346002B02D01F4B062222
:100C2C001A700220FFF7C8FE0346002B40F0198112
:100C3C001A4B01221A70244B00221A6000F0CEF9D4
:100C4C004FF47A70FFF780FD0BE1164B00221A600F
:100C5C00144B1B681A4615491548FFF771FA154BCA
:100C6C001B68012B08D1104B1B681846FFF786FD3B
:100C7C0020210B4800F0A7FE0020FFF79DFE034645
:100C8C00002B40F0F080054B01221A704FF47A7063
:100C9C00FFF75AFD00F0A2F9E5E000BFDA000020F2
:100CAC0000080140DC00002004000020340000207B
:100CBC00180000208800002080000020F000002098
:100CCC00E000002078000020E40000206A4B1B6844
:100CDC00012B16D14FF47A70FFF702FD674B1B689E
:100CEC000133664A1360654B1B680A2B02D1634BB8
:100CFC0000221A60614B1B681A4661496148FFF774
:100D0C001FFA614B1B68012B08D1604B1B681846FE
:100D1C00FFF734FD20215E4800F055FE0120FFF75F
:100D2C004BFE0346002B40F0A0805A4B01221A7058
:100D3C00594B00221A6000F051F94FF47A70FFF70A
:100D4C0003FD92E04C4B1B68012B16D14FF47A70CB
:100D5C00FFF7C6FC494B1B68013B484A1360474BE5
:100D6C001B68002B02DA454B09221A60434B1B68A7
:100D7C001A4643494348FFF7E3F9434B1B68012BE1
:100D8C0008D1424B1B681846FFF7F8FC202140485D
:100D9C0000F019FE0220FFF70FFE0346002B66D170
:100DAC003C4B01221A703D4B00221A6000F016F9E0
:100DBC004FF47A70FFF7C8FC59E0394B1B68012BD4
:100DCC0014D1384B1B681846FFF7BEFC364B1B681A
:100DDC00002B04DD344B1B68013B334A1360324B50
:100DEC001B681A4626492748FFF7AAF9264B1B68A9
:100DFC00012B08D1254B1B681846FFF7BFFC20219F
:100E0C00234800F0E0FD0120FFF7D6FD0346002B40
:100E1C000ED01A4B1B68013B184A13601D4B012264
:100E2C001A7000F0DBF84FF47A70FFF78DFC20E0BD
:100E3C000220FFF7C1FD0346002B1AD00F4B1B6895
:100E4C0001330E4A1360134B01221A7000F0C6F8DE
:100E5C004FF47A70FFF778FC0BE000BF0AE000BF9C
:100E6C0008E000BF06E000BF04E000BF02E000BFE6
:100E7C0000E000BF00BF80BD70000020DC0000203F
:100E8C0034000020180000208800002004000020FE
:100E9C0000080140DA000020E0000020E4000020FF
:100EAC008000002014000020F000002080B582B0EB
:100EBC0000AF78607B68022B16D17868FFF77CFD59
:100ECC000346002B29D0174B1B68002B04DD154B58
:100EDC001B68013B134A1360124B1B68002B1CDC74
:100EEC00114B01221A6018E07B68012B15D1786830
:100EFC00FFF762FD0346002B0FD00C4B1B68002B39
:100F0C0004DD0A4B1B68013B084A1360074B1B6846
:100F1C00002B02DC064B01221A6000BF0837BD46CD
:100F2C0080BD00BF08000020E80000200C0000205D
:100F3C00EC00002080B400AF054B1B68012B0CBFEC
:100F4C0001230023DBB21846BD4680BC704700BFAE
:100F5C00EC00002080B400AF054B1B68012B0CBFCC
:100F6C0001230023DBB21846BD4680BC704700BF8E
:100F7C00E800002080B400AF074B00221A60074B3A
:100F8C0003221A60064B00221A60064B03221A60D9
:100F9C0000BFBD4680BC7047EC0000200C00002058
:100FAC00E80000200800002080B400AF094B1B684B
:100FBC00002B04DD074B1B68013B064A1360054BF5
:100FCC001B68002B02DC044B01221A6000BFBD46DB
:100FDC0080BC704710000020F400002080B400AFEB
:100FEC00044B0A221A60044B00221A6000BFBD4653
:100FFC0080BC704710000020F400002080B400AFCB
:10100C00054B1B68012B0CBF01230023DBB21846D8
:10101C00BD4680BC704700BFF400002080B500AF17
:10102C0000F0B6F900F00CF800F092F800F044F87B
:10103C00024801F019F9FFF7D3FCFCE7F800002097
:10104C0080B590B000AF07F1180328220021184694
:10105C0001F0C2FC3B1D00221A605A609A60DA60F3
:10106C001A610223BB610123BB621023FB620023C4
:10107C007B6307F11803184600F0BEFC0346002BF7
:10108C0001D000F0DCF80F237B600023BB60002351
:10109C00FB6000233B6100237B613B1D0021184654
:1010AC0000F02CFF0346002B01D000F0C8F800BF65
:1010BC004037BD4680BD000080B586B000AF07F15B
:1010CC00080300221A605A609A60DA603B460022DC
:1010DC001A605A601D4B4FF080421A601B4B41F650
:1010EC003F725A60194B00229A60184B0A22DA6040
:1010FC00164B00221A61154B00229A61134801F01D
:10110C0063F80346002B01D000F099F84FF480539C
:10111C00BB6007F1080319460C4801F0F9F90346C6
:10112C00002B01D000F08BF800233B6000237B6088
:10113C003B461946054801F0C1FB0346002B01D084
:10114C0000F07DF800BF1837BD4680BDF8000020C8
:10115C0080B586B000AF07F1080300221A605A6010
:10116C009A60DA60274B9B69264A43F0040393612B
:10117C00244B9B6903F004037B607B68214B9B69C8
:10118C00204A43F0080393611E4B9B6903F008034C
:10119C003B603B68002220211B4800F0FCFB002236
:1011AC007F211A4800F0F7FB2023BB600123FB6072
:1011BC0000233B6102237B6107F1080319461248A7
:1011CC0000F056FA7F23BB600123FB6000233B61D8
:1011DC0002237B6107F1080319460C4800F048FA1A
:1011EC004FF46053BB600023FB6001233B6107F1AC
:1011FC0008031946044800F03BFA00BF1837BD46F7
:10120C0080BD00BF0010024000080140000C0140EE
:10121C0080B584B000AF7860FFF7CAFA0023FB609A
:10122C0005E0F868FFF758FBFB680133FB60FB68CF
:10123C00022BF6DD00BF00BF1037BD4680BD80B469
:10124C0000AF72B600BFFEE780B483B000AF0E4BA8
:10125C009B690D4A43F0010393610B4B9B6903F0AF
:10126C0001037B607B68084BDB69074A43F08053C2
:10127C00D361054BDB6903F080533B603B6800BFD7
:10128C000C37BD4680BC70470010024080B584B05E
:10129C0000AF78607B681B68B3F1804F13D10C4BA7
:1012AC00DB690B4A43F00103D361094BDB6903F0A3
:1012BC000103FB60FB68002200211C2000F0A1F957
:1012CC001C2000F0BAF900BF1037BD4680BD00BF2E
:1012DC000010024080B400AFFEE780B400AFFEE720
:1012EC0080B400AFFEE780B400AFFEE780B400AF7F
:1012FC00FEE780B400AF00BFBD4680BC704780B431
:10130C0000AF00BFBD4680BC704780B400AF00BFCB
:10131C00BD4680BC704780B500AF00F07FF800BFC1
:10132C0080BD000080B500AF024800F0E9FF00BFAF
:10133C0080BD00BFF800002080B400AF00BFBD46E8
:10134C0080BC70470C480D490D4A002302E0D4586C
:10135C00C4500433C4188C42F9D30A4A0A4C0023F3
:10136C0001E013600432A242FBD3FFF7E5FF01F06A
:10137C000FFBFFF753FE70470000002050000020C9
:10138C00342A00085000002044010020FEE7000031
:10139C0080B500AF084B1B68074A43F0100313607D
:1013AC00032000F023F90F2000F008F8FFF74CFFA2
:1013BC000023184680BD00BF0020024080B582B0DB
:1013CC0000AF7860124B1A68124B1B7819464FF419
:1013DC007A73B3FBF1F3B2FBF3F3184600F03BF96D
:1013EC000346002B01D001230EE07B680F2B0AD89B
:1013FC00002279684FF0FF3000F003F9064A7B6851
:10140C001360002300E0012318460837BD4680BD59
:10141C00440000204C0000204800002080B400AFA5
:10142C00054B1B781A46054B1B681344034A136083
:10143C0000BFBD4680BC70474C000020400100201E
:10144C0080B400AF024B1B681846BD4680BC704789
:10145C004001002080B485B000AF78607B6803F059
:10146C000703FB600C4BDB68BB60BA684FF6FF03ED
:10147C001340BB60FB681A02BB68134343F0BF63A5
:10148C0043F40033BB60044ABB68D36000BF14371D
:10149C00BD4680BC704700BF00ED00E080B400AFDB
:1014AC00044BDB681B0A03F007031846BD4680BCDF
:1014BC00704700BF00ED00E080B483B000AF03467E
:1014CC00FB7197F90730002B0BDBFB7903F01F0244
:1014DC00064997F907305B09012000FA02F241F83E
:1014EC00232000BF0C37BD4680BC704700E100E0F4
:1014FC0080B483B000AF03463960FB7197F90730B5
:10150C00002B0ADB3B68DAB20C4997F90730120161
:10151C00D2B20B4483F800230AE03B68DAB20849E4
:10152C00FB7903F00F03043B1201D2B20B441A7681
:10153C0000BF0C37BD4680BC704700BF00E100E027
:10154C0000ED00E080B489B000AFF860B9607A605B
:10155C00FB6803F00703FB61FB69C3F10703042B72
:10156C0028BF0423BB61FB690433062B02D9FB693A
:10157C00033B00E000237B614FF0FF32BB6902FAB2
:10158C0003F3DA43BB681A407B699A404FF0FF3192
:10159C007B6901FA03F3D9437B680B40134318466C
:1015AC002437BD4680BC704780B582B000AF7860F0
:1015BC007B68013BB3F1807F01D301230FE00A4A22
:1015CC007B68013B53600F214FF0FF30FFF790FF1A
:1015DC00054B00229A60044B07221A600023184620
:1015EC000837BD4680BD00BF10E000E080B582B07A
:1015FC0000AF78607868FFF72DFF00BF0837BD4655
:10160C0080BD80B586B000AF0346B9607A60FB73CD
:10161C0000237B61FFF742FF78617A68B9687869CB
:10162C00FFF790FF024697F90F3011461846FFF767
:10163C005FFF00BF1837BD4680BD80B582B000AFDC
:10164C000346FB7197F907301846FFF735FF00BFCB
:10165C000837BD4680BD80B582B000AF7860786831
:10166C00FFF7A2FF034618460837BD4680BD0000B1
:10167C0080B48BB000AF7860396000237B620023AC
:10168C003B6261E101227B6A02FA03F3FB613B6876
:10169C001B68FA691340BB61BA69FB699A4240F056
:1016AC0050813B685B68974A93425ED0954A93425F
:1016BC0075D8954A934258D0934A93426FD8934A1F
:1016CC00934252D0914A934269D8914A93424CD05A
:1016DC008F4A934263D88F4A934246D08D4A9342A5
:1016EC005DD8122B2AD8122B59D801A252F823F00C
:1016FC00771700085117000863170008A517000892
:10170C00AB170008AB170008AB170008AB170008A5
:10171C00AB170008AB170008AB170008AB17000895
:10172C00AB170008AB170008AB170008AB17000885
:10173C00AB170008591700086D170008764A93423A
:10174C0013D02CE03B68DB683B6229E03B68DB682C
:10175C0004333B6224E03B68DB6808333B621FE0E8
:10176C003B68DB680C333B621AE03B689B68002BE0
:10177C0002D104233B6213E03B689B68012B05D12B
:10178C0008233B627B68FA691A6109E008233B6213
:10179C007B68FA695A6103E000233B6200E000BFFA
:1017AC00BB69FF2B01D87B6801E07B6804337B614C
:1017BC00BB69FF2B02D87B6A9B0002E07B6A083B6B
:1017CC009B003B617B691A680F213B6901FA03F3AB
:1017DC00DB431A40396A3B6901FA03F31A437B690C
:1017EC001A603B685B6803F08053002B00F0A98003
:1017FC004A4B9B69494A43F001039361474B9B69F0
:10180C0003F00103BB60BB68454A7B6A9B0802334B
:10181C0052F82330FB607B6A03F003039B000F221A
:10182C0002FA03F3DB43FA681340FB607B683D4A22
:10183C0093420DD07B683C4A934207D07B683B4A6D
:10184C00934201D1022304E0032302E0012300E0D0
:10185C0000237A6A02F0030292009340FA68134361
:10186C00FB602F497B6A9B080233FA6841F82320FE
:10187C003B685B6803F48033002B06D02C4B1A6852
:10188C002B49BB6913430B6006E0294B1A68BB69F3
:10189C00DB43274913400B603B685B6803F4003360
:1018AC00002B06D0224B5A682149BB6913434B606D
:1018BC0006E01F4B5A68BB69DB431D4913404B6064
:1018CC003B685B6803F48013002B06D0184B9A68B6
:1018DC001749BB6913438B6006E0154B9A68BB69CB
:1018EC00DB43134913408B603B685B6803F40013C4
:1018FC00002B1FD00E4BDA680D49BB691343CB602C
:10190C001FE000BF00003210000031100000221058
:10191C0000002110000012100000111000100240F5
:10192C000000014000080140000C01400010014083
:10193C00000401400B4BDA68BB69DB4309491340D7
:10194C00CB607B6A01337B623B681A687B6A22FA44
:10195C0003F3002B7FF496AE00BF00BF2C37BD46BF
:10196C0080BC70470004014080B485B000AF786043
:10197C000B467B807B689A687B881340002B02D0D7
:10198C000123FB7301E00023FB73FB7B1846143728
:10199C00BD4680BC704780B483B000AF78600B4606
:1019AC007B8013467B707B78002B03D07A887B6816
:1019BC001A6103E07B881A047B681A6100BF0C373C
:1019CC00BD4680BC704780B485B000AF78600B46D4
:1019DC007B807B68DB68FB607A88FB6813401A04A9
:1019EC00FB68D9437B880B401A437B681A6100BFA4
:1019FC001437BD4680BC704780B586B000AF7860A8
:101A0C007B68002B01D1012372E27B681B6803F019
:101A1C000103002B00F08780924B5B6803F00C03F2
:101A2C00042B0CD08F4B5B6803F00C03082B12D1EA
:101A3C008C4B5B6803F48033B3F5803F0BD1894B3F
:101A4C001B6803F40033002B6CD07B685B68002BA5
:101A5C0068D101234CE27B685B68B3F5803F06D10B
:101A6C00804B1B687F4A43F4803313602EE07B6805
:101A7C005B68002B0CD17B4B1B687A4A23F48033B8
:101A8C001360784B1B68774A23F4802313601DE0A6
:101A9C007B685B68B3F5A02F0CD1724B1B68714A45
:101AAC0043F4802313606F4B1B686E4A43F48033FE
:101ABC0013600BE06B4B1B686A4A23F48033136092
:101ACC00684B1B68674A23F4802313607B685B6850
:101ADC00002B13D0FFF7B4FC386108E0FFF7B0FC23
:101AEC0002463B69D31A642B01D9032300E25D4BF8
:101AFC001B6803F40033002BF0D014E0FFF7A0FCBC
:101B0C00386108E0FFF79CFC02463B69D31A642B52
:101B1C0001D90323ECE1534B1B6803F40033002B76
:101B2C00F0D100E000BF7B681B6803F00203002BC0
:101B3C0063D04C4B5B6803F00C03002B0BD0494B70
:101B4C005B6803F00C03082B1CD1464B5B6803F459
:101B5C008033002B16D1434B1B6803F00203002B80
:101B6C0005D07B681B69012B01D00123C0E13D4BE3
:101B7C001B6823F0F8027B685B69DB00394913436F
:101B8C000B603AE07B681B69002B20D0364B01229E
:101B9C001A60FFF755FC386108E0FFF751FC02466C
:101BAC003B69D31A022B01D90323A1E12D4B1B68EE
:101BBC0003F00203002BF0D02A4B1B6823F0F80231
:101BCC007B685B69DB00274913430B6015E0264BF0
:101BDC0000221A60FFF734FC386108E0FFF730FC94
:101BEC0002463B69D31A022B01D9032380E11D4B1A
:101BFC001B6803F00203002BF0D17B681B6803F019
:101C0C000803002B3AD07B689B69002B19D0174B2B
:101C1C0001221A60FFF714FC386108E0FFF710FC92
:101C2C0002463B69D31A022B01D9032360E10D4B09
:101C3C005B6A03F00203002BF0D0012000F0A6FA3F
:101C4C001CE00A4B00221A60FFF7FAFB38610FE028
:101C5C00FFF7F6FB02463B69D31A022B08D9032384
:101C6C0046E100BF001002400000424280044242A4
:101C7C00924B5B6A03F00203002BE9D17B681B6873
:101C8C0003F00403002B00F0A6800023FB758B4BA4
:101C9C00DB6903F08053002B0DD1884BDB69874A3D
:101CAC0043F08053D361854BDB6903F08053BB60F9
:101CBC00BB680123FB75824B1B6803F48073002BFC
:101CCC0018D17F4B1B687E4A43F480731360FFF777
:101CDC00B7FB386108E0FFF7B3FB02463B69D31A48
:101CEC00642B01D9032303E1754B1B6803F4807348
:101CFC00002BF0D07B68DB68012B06D16F4B1B6A85
:101D0C006E4A43F0010313622DE07B68DB68002B05
:101D1C000CD16A4B1B6A694A23F001031362674BAF
:101D2C001B6A664A23F0040313621CE07B68DB68C1
:101D3C00052B0CD1614B1B6A604A43F00403136200
:101D4C005E4B1B6A5D4A43F0010313620BE05B4B75
:101D5C001B6A5A4A23F001031362584B1B6A574AF9
:101D6C0023F0040313627B68DB68002B15D0FFF7AC
:101D7C0067FB38610AE0FFF763FB02463B69D31A45
:101D8C0041F28832934201D90323B1E04B4B1B6AD9
:101D9C0003F00203002BEED014E0FFF751FB386187
:101DAC000AE0FFF74DFB02463B69D31A41F2883239
:101DBC00934201D903239BE0404B1B6A03F00203BF
:101DCC00002BEED1FB7D012B05D13C4BDB693B4A53
:101DDC0023F08053D3617B68DB69002B00F0878094
:101DEC00364B5B6803F00C03082B61D07B68DB6916
:101DFC00022B46D1334B00221A60FFF721FB3861CE
:101E0C0008E0FFF71DFB02463B69D31A022B01D9F0
:101E1C0003236DE0294B1B6803F00073002BF0D1FA
:101E2C007B681B6AB3F5803F08D1244B5B6823F4B5
:101E3C0000327B689B68214913434B601F4B5B68E6
:101E4C0023F474127B68196A7B685B6A0B431B4929
:101E5C0013434B601B4B01221A60FFF7F1FA3861F8
:101E6C0008E0FFF7EDFA02463B69D31A022B01D9C1
:101E7C0003233DE0114B1B6803F00073002BF0D0E3
:101E8C0035E0104B00221A60FFF7DAFA386108E0EF
:101E9C00FFF7D6FA02463B69D31A022B01D903236A
:101EAC0026E0064B1B6803F00073002BF0D11EE0FC
:101EBC007B68DB69012B07D1012319E0001002407C
:101ECC0000700040600042420B4B5B68FB60FB689B
:101EDC0003F480327B681B6A9A4206D1FB6803F4D8
:101EEC0070127B685B6A9A4201D0012300E00023E8
:101EFC0018461837BD4680BD0010024080B584B02E
:101F0C0000AF786039607B68002B01D10123D0E0F1
:101F1C006A4B1B6803F007033A689A4210D9674B67
:101F2C001B6823F0070265493B6813430B60634B46
:101F3C001B6803F007033A689A4201D00123B8E00A
:101F4C007B681B6803F00203002B20D07B681B68A6
:101F5C0003F00403002B05D0594B5B68584A43F43B
:101F6C00E06353607B681B6803F00803002B05D00B
:101F7C00534B5B68524A43F460535360504B5B685D
:101F8C0023F0F0027B689B684D4913434B607B68E0
:101F9C001B6803F00103002B40D07B685B68012BAE
:101FAC0007D1474B1B6803F40033002B15D10123D9
:101FBC007FE07B685B68022B07D1414B1B6803F009
:101FCC000073002B09D1012373E03D4B1B6803F018
:101FDC000203002B01D101236BE0394B5B6823F02A
:101FEC0003027B685B68364913434B60FFF728FAA2
:101FFC00F8600AE0FFF724FA0246FB68D31A41F2B4
:10200C008832934201D9032353E02D4B5B6803F0D4
:10201C000C027B685B689B009A42EBD1274B1B68D8
:10202C0003F007033A689A4210D2244B1B6823F042
:10203C00070222493B6813430B60204B1B6803F0DB
:10204C0007033A689A4201D0012332E07B681B688F
:10205C0003F00403002B08D0194B5B6823F4E062F7
:10206C007B68DB68164913434B607B681B6803F085
:10207C000803002B09D0124B5B6823F460527B6879
:10208C001B69DB000E4913434B6000F021F802463C
:10209C000B4B5B681B0903F00F030A49CB5C22FA5C
:1020AC0003F3094A1360094B1B681846FFF786F9BE
:1020BC00002318461037BD4680BD00BF00200240EB
:1020CC00001002401C2A0008440000204800002098
:1020DC0090B48AB000AF294B3C1D0FCB84E80F00A5
:1020EC0040F201233B800023FB610023BB610023F2
:1020FC007B6200237B6100233B62214B5B68FB61AD
:10210C00FB6903F00C03042B02D0082B03D02BE04B
:10211C001C4B3B622BE0FB699B0C03F00F03283339
:10212C003B4413F8243C7B61FB6903F48033002BA4
:10213C0012D0134B5B685B0C03F0010328333B4458
:10214C0013F8283CBB617B690E4A03FB02F2BB69A6
:10215C00B2FBF3F37B6204E07B690B4A02FB03F3F3
:10216C007B627B6A3B6202E0064B3B6200BF3B6AD0
:10217C0018462837BD4690BC704700BF0C2A000893
:10218C000010024000127A0000093D0080B485B0B6
:10219C0000AF78600A4B1B680A4AA2FB03235B0A58
:1021AC007A6802FB03F3FB6000BFFB685A1EFA60FF
:1021BC00002BF9D100BF00BF1437BD4680BC70475F
:1021CC0044000020D34D621080B582B000AF78601F
:1021DC007B68002B01D1012341E07B6893F83D30F3
:1021EC00DBB2002B06D17B68002283F83C20786898
:1021FC00FFF74CF87B68022283F83D207B681A6855
:10220C007B6804331946104600F06AFA7B68012299
:10221C0083F846207B68012283F83E207B680122EC
:10222C0083F83F207B68012283F840207B680122E1
:10223C0083F841207B68012283F842207B680122CD
:10224C0083F843207B68012283F844207B680122B9
:10225C0083F845207B68012283F83D200023184633
:10226C000837BD4680BD000080B485B000AF7860F3
:10227C007B6893F83D30DBB2012B01D0012335E0B4
:10228C007B68022283F83D207B681B68DA687B68D8
:10229C001B6842F00102DA607B681B68164A9342A5
:1022AC0009D07B681B68B3F1804F04D07B681B6836
:1022BC00124A934211D17B681B689B6803F0070399
:1022CC00FB60FB68062B10D07B681B681A687B6868
:1022DC001B6842F001021A6007E07B681B681A68F1
:1022EC007B681B6842F001021A6000231846143701
:1022FC00BD4680BC704700BF002C0140000400406C
:10230C0080B582B000AF78607B681B681B6903F0F6
:10231C000203022B22D17B681B68DB6803F00203EB
:10232C00022B1BD17B681B686FF002021A617B6861
:10233C0001221A777B681B689B6903F00303002B4F
:10234C0003D0786800F0B1F905E0786800F0A4F9E2
:10235C00786800F0B3F97B6800221A777B681B68F9
:10236C001B6903F00403042B22D17B681B68DB6818
:10237C0003F00403042B1BD17B681B686FF0040271
:10238C001A617B6802221A777B681B689B6903F4CD
:10239C004073002B03D0786800F087F905E078686B
:1023AC0000F07AF9786800F089F97B6800221A77D6
:1023BC007B681B681B6903F00803082B22D17B6820
:1023CC001B68DB6803F00803082B1BD17B681B68B8
:1023DC006FF008021A617B6804221A777B681B680D
:1023EC00DB6903F00303002B03D0786800F05DF980
:1023FC0005E0786800F050F9786800F05FF97B68C8
:10240C0000221A777B681B681B6903F01003102BE2
:10241C0022D17B681B68DB6803F01003102B1BD1E7
:10242C007B681B686FF010021A617B6808221A77B0
:10243C007B681B68DB6903F44073002B03D078685E
:10244C0000F033F905E0786800F026F9786800F0C0
:10245C0035F97B6800221A777B681B681B6903F0CF
:10246C000103012B0ED17B681B68DB6803F00103B1
:10247C00012B07D17B681B686FF001021A61786829
:10248C00FEF7C6FE7B681B681B6903F08003802B7C
:10249C000ED17B681B68DB6803F08003802B07D1AF
:1024AC007B681B686FF080021A61786800F067FA2D
:1024BC007B681B681B6903F04003402B0ED17B68C3
:1024CC001B68DB6803F04003402B07D17B681B685B
:1024DC006FF040021A61786800F0F9F87B681B68AD
:1024EC001B6903F02003202B0ED17B681B68DB6873
:1024FC0003F02003202B07D17B681B686FF02002B0
:10250C001A61786800F032FA00BF0837BD4680BD0A
:10251C0080B584B000AF786039607B6893F83C304C
:10252C00012B01D10223B3E07B68012283F83C200C
:10253C007B68022283F83D207B681B689B68FB60EC
:10254C00FB6823F07703FB60FB6823F47F43FB609D
:10255C007B681B68FA689A603B681B68B3F5005F80
:10256C003ED0B3F5005F00F28780B3F5805F00F0DA
:10257C008580B3F5805F7FD8702B1AD0702B7BD8F9
:10258C00602B50D0602B77D8502B3CD0502B73D86D
:10259C00402B58D0402B6FD8302B64D0302B6BD8BD
:1025AC00202B60D0202B67D8002B5CD0102B5AD05E
:1025BC0062E07B6818683B6899683B685A683B68BE
:1025CC00DB6800F05CF97B681B689B68FB60FB6850
:1025DC0043F07703FB607B681B68FA689A604EE0F7
:1025EC007B6818683B6899683B685A683B68DB688D
:1025FC0000F045F97B681B689A687B681B6842F49D
:10260C0080429A603BE07B6818683B6859683B687D
:10261C00DB681A4600F0BCF87B681B685021184632
:10262C0000F013F92BE07B6818683B6859683B682D
:10263C00DB681A4600F0DAF87B681B6860211846E4
:10264C0000F003F91BE07B6818683B6859683B682D
:10265C00DB681A4600F09CF87B681B684021184622
:10266C0000F0F3F80BE07B681A683B681B681946AE
:10267C00104600F0EAF802E000BF00E000BF7B6803
:10268C00012283F83D207B68002283F83C20002344
:10269C0018461037BD4680BD80B483B000AF78605B
:1026AC0000BF0C37BD4680BC704780B483B000AF10
:1026BC00786000BF0C37BD4680BC704780B483B0D7
:1026CC0000AF786000BF0C37BD4680BC704780B44B
:1026DC0083B000AF786000BF0C37BD4680BC70473C
:1026EC0080B485B000AF786039607B681B68FB6094
:1026FC007B68254A934207D07B68B3F1804F03D0A7
:10270C007B68224A934208D1FB6823F07003FB607C
:10271C003B685B68FA681343FB607B681A4A934218
:10272C0007D07B68B3F1804F03D07B68174A934284
:10273C0008D1FB6823F44073FB603B68DB68FA68E4
:10274C001343FB60FB6823F080023B685B69134317
:10275C00FB607B68FA681A603B689A687B68DA628F
:10276C003B681A687B689A627B68074A934203D17C
:10277C003B681A697B681A637B6801225A6100BF47
:10278C001437BD4680BC7047002C0140000400404B
:10279C0080B487B000AFF860B9607A60FB681B6AE0
:1027AC007B61FB681B6A23F00102FB681A62FB6801
:1027BC009B693B613B6923F0F0033B617B681B0128
:1027CC003A6913433B617B6923F00A037B617A69A5
:1027DC00BB6813437B61FB683A699A61FB687A6951
:1027EC001A6200BF1C37BD4680BC704780B487B0EE
:1027FC0000AFF860B9607A60FB681B6A23F01002C6
:10280C00FB681A62FB689B697B61FB681B6A3B6116
:10281C007B6923F470437B617B681B037A691343E8
:10282C007B613B6923F0A0033B61BB681B013A69E8
:10283C0013433B61FB687A699A61FB683A691A62D7
:10284C0000BF1C37BD4680BC704780B485B000AF5C
:10285C00786039607B689B68FB60FB6823F07003D1
:10286C00FB603A68FB68134343F00703FB607B682B
:10287C00FA689A6000BF1437BD4680BC704780B4BC
:10288C0087B000AFF860B9607A603B60FB689B680A
:10289C007B617B6923F47F437B613B681A027B6815
:1028AC001A43BB6813437A6913437B61FB687A69EB
:1028BC009A6000BF1C37BD4680BC704780B485B0A1
:1028CC0000AF786039607B6893F83C30012B01D104
:1028DC00022341E07B68012283F83C207B680222C2
:1028EC0083F83D207B681B685B68FB607B681B681A
:1028FC009B68BB60FB6823F07003FB603B681B6844
:10290C00FA681343FB607B681B68FA685A607B6843
:10291C001B68144A934209D07B681B68B3F1804F43
:10292C0004D07B681B68104A93420CD1BB6823F01F
:10293C008003BB603B685B68BA681343BB607B6811
:10294C001B68BA689A607B68012283F83D207B681B
:10295C00002283F83C20002318461437BD4680BC67
:10296C00704700BF002C01400004004080B483B0CD
:10297C0000AF786000BF0C37BD4680BC704780B498
:10298C0083B000AF786000BF0C37BD4680BC704789
:10299C0070B500260C4D0D4C641BA410A64209D139
:1029AC0000F022F800260A4D0A4C641BA410A64223
:1029BC0005D170BD55F8043B98470136EEE755F844
:1029CC00043B98470136F2E72C2A00082C2A000811
:1029DC002C2A0008302A000803460244934200D1F6
:1029EC00704703F8011BF9E7F8B500BFF8BC08BC49
:1029FC009E467047F8B500BFF8BC08BC9E467047B1
:102A0C0002030405060708090A0B0C0D0E0F101023
:102A1C000000000000000000010203040607080982
:042A2C00310100086C
:042A30000D0100088C
:102A34000A000000E8030000030000000300000097
:102A44000A000000E8030000000C0140000C0140F3
:102A5400000C0140000C0140000C0140000C01403E
:102A6400000C0140010002000400080010002000D6
:102A7400400000000024F4001000000001000000E9
:04000005080013518B
:00000001FF
